:020000020000FC
:10800000314000063C4000023D400100B01290802B
:10801000B0121880B012A080B240805A2001E2D283
:108020002F00E2F22900E2D22D00E2F22C00E2D38E
:108030002200B24024F47201B240D0026001B2408A
:108040001000620132D0180003433041F2900A0060
:1080500000020820C2430002E2C32100B1D0F000B8
:1080600000000013D25300020013E2D32100C243E8
:108070000002B1C0E0000000E2C22B000013218327
:108080000A4C814A00000D415C43B012A880F93FC0
:108090000D5C033CCC4300001C530C9DFB23304182
:0A80A0003040A48030407E80304163
:02FFE6006A802F
:02FFF2004C8041
:02FFFE00008081
:040000030000800079
:00000001FF
